{
  "_format": "hh3-artifact-1",
  "contractName": "KrearsipV2",
  "sourceName": "contracts/krearsipV2.sol",
  "abi": [
    {
      "inputs": [],
      "stateMutability": "nonpayable",
      "type": "constructor"
    },
    {
      "anonymous": false,
      "inputs": [
        {
          "indexed": true,
          "internalType": "bytes32",
          "name": "fileHash",
          "type": "bytes32"
        },
        {
          "indexed": true,
          "internalType": "address",
          "name": "creator",
          "type": "address"
        },
        {
          "indexed": true,
          "internalType": "address",
          "name": "registrar",
          "type": "address"
        },
        {
          "indexed": false,
          "internalType": "string",
          "name": "title",
          "type": "string"
        },
        {
          "indexed": false,
          "internalType": "uint256",
          "name": "timestamp",
          "type": "uint256"
        }
      ],
      "name": "WorkRegistered",
      "type": "event"
    },
    {
      "inputs": [
        {
          "internalType": "bytes32",
          "name": "fileHash",
          "type": "bytes32"
        }
      ],
      "name": "getWork",
      "outputs": [
        {
          "internalType": "address",
          "name": "creator",
          "type": "address"
        },
        {
          "internalType": "address",
          "name": "registrar",
          "type": "address"
        },
        {
          "internalType": "uint256",
          "name": "timestamp",
          "type": "uint256"
        },
        {
          "internalType": "string",
          "name": "title",
          "type": "string"
        }
      ],
      "stateMutability": "view",
      "type": "function"
    },
    {
      "inputs": [
        {
          "internalType": "bytes32",
          "name": "fileHash",
          "type": "bytes32"
        }
      ],
      "name": "isRegistered",
      "outputs": [
        {
          "internalType": "bool",
          "name": "",
          "type": "bool"
        }
      ],
      "stateMutability": "view",
      "type": "function"
    },
    {
      "inputs": [],
      "name": "owner",
      "outputs": [
        {
          "internalType": "address",
          "name": "",
          "type": "address"
        }
      ],
      "stateMutability": "view",
      "type": "function"
    },
    {
      "inputs": [
        {
          "internalType": "bytes32",
          "name": "fileHash",
          "type": "bytes32"
        },
        {
          "internalType": "address",
          "name": "creator",
          "type": "address"
        },
        {
          "internalType": "string",
          "name": "title",
          "type": "string"
        }
      ],
      "name": "registerWork",
      "outputs": [],
      "stateMutability": "nonpayable",
      "type": "function"
    },
    {
      "inputs": [
        {
          "internalType": "address",
          "name": "newOwner",
          "type": "address"
        }
      ],
      "name": "transferOwnership",
      "outputs": [],
      "stateMutability": "nonpayable",
      "type": "function"
    }
  ],
  "bytecode": "0x608060405234801561000f575f80fd5b50335f806101000a81548173ffffffffffffffffffffffffffffffffffffffff021916908373ffffffffffffffffffffffffffffffffffffffff1602179055506110a58061005c5f395ff3fe608060405234801561000f575f80fd5b5060043610610055575f3560e01c806327258b221461005957806330266537146100895780638da5cb5b146100bc578063f2fde38b146100da578063fe6038e1146100f6575b5f80fd5b610073600480360381019061006e919061083e565b610112565b6040516100809190610883565b60405180910390f35b6100a3600480360381019061009e919061083e565b61017c565b6040516100b3949392919061097d565b60405180910390f35b6100c4610306565b6040516100d191906109c7565b60405180910390f35b6100f460048036038101906100ef9190610a0a565b610329565b005b610110600480360381019061010b9190610a96565b610466565b005b5f8073ffffffffffffffffffffffffffffffffffffffff1660015f8481526020019081526020015f205f015f9054906101000a900473ffffffffffffffffffffffffffffffffffffffff1673ffffffffffffffffffffffffffffffffffffffff1614159050919050565b5f805f60605f60015f8781526020019081526020015f206040518060800160405290815f82015f9054906101000a900473ffffffffffffffffffffffffffffffffffffffff1673ffffffffffffffffffffffffffffffffffffffff1673ffffffffffffffffffffffffffffffffffffffff168152602001600182015f9054906101000a900473ffffffffffffffffffffffffffffffffffffffff1673ffffffffffffffffffffffffffffffffffffffff1673ffffffffffffffffffffffffffffffffffffffff1681526020016002820154815260200160038201805461026190610b34565b80601f016020809104026020016040519081016040528092919081815260200182805461028d90610b34565b80156102d85780601f106102af576101008083540402835291602001916102d8565b820191905f5260205f20905b8154815290600101906020018083116102bb57829003601f168201915b5050505050815250509050805f01518160200151826040015183606001519450945094509450509193509193565b5f8054906101000a900473ffffffffffffffffffffffffffffffffffffffff1681565b5f8054906101000a900473ffffffffffffffffffffffffffffffffffffffff1673ffffffffffffffffffffffffffffffffffffffff163373ffffffffffffffffffffffffffffffffffffffff16146103b6576040517f08c379a00000000000000000000000000000000000000000000000000000000081526004016103ad90610bae565b60405180910390fd5b5f73ffffffffffffffffffffffffffffffffffffffff168173ffffffffffffffffffffffffffffffffffffffff1603610424576040517f08c379a000000000000000000000000000000000000000000000000000000000815260040161041b90610c16565b60405180910390fd5b805f806101000a81548173ffffffffffffffffffffffffffffffffffffffff021916908373ffffffffffffffffffffffffffffffffffffffff16021790555050565b5f8054906101000a900473ffffffffffffffffffffffffffffffffffffffff1673ffffffffffffffffffffffffffffffffffffffff163373ffffffffffffffffffffffffffffffffffffffff16146104f3576040517f08c379a00000000000000000000000000000000000000000000000000000000081526004016104ea90610bae565b60405180910390fd5b5f801b8403610537576040517f08c379a000000000000000000000000000000000000000000000000000000000815260040161052e90610c7e565b60405180910390fd5b5f73ffffffffffffffffffffffffffffffffffffffff168373ffffffffffffffffffffffffffffffffffffffff16036105a5576040517f08c379a000000000000000000000000000000000000000000000000000000000815260040161059c90610ce6565b60405180910390fd5b5f73ffffffffffffffffffffffffffffffffffffffff1660015f8681526020019081526020015f205f015f9054906101000a900473ffffffffffffffffffffffffffffffffffffffff1673ffffffffffffffffffffffffffffffffffffffff1614610645576040517f08c379a000000000000000000000000000000000000000000000000000000000815260040161063c90610d4e565b60405180910390fd5b60405180608001604052808473ffffffffffffffffffffffffffffffffffffffff1681526020013373ffffffffffffffffffffffffffffffffffffffff16815260200142815260200183838080601f0160208091040260200160405190810160405280939291908181526020018383808284375f81840152601f19601f8201169050808301925050505050505081525060015f8681526020019081526020015f205f820151815f015f6101000a81548173ffffffffffffffffffffffffffffffffffffffff021916908373ffffffffffffffffffffffffffffffffffffffff1602179055506020820151816001015f6101000a81548173ffffffffffffffffffffffffffffffffffffffff021916908373ffffffffffffffffffffffffffffffffffffffff16021790555060408201518160020155606082015181600301908161078f9190610f36565b509050503373ffffffffffffffffffffffffffffffffffffffff168373ffffffffffffffffffffffffffffffffffffffff16857f6e1ee0408891c5ecfdd435db416b9140a0f12cc7590e03db46322657f68ce37b8585426040516107f59392919061103f565b60405180910390a450505050565b5f80fd5b5f80fd5b5f819050919050565b61081d8161080b565b8114610827575f80fd5b50565b5f8135905061083881610814565b92915050565b5f6020828403121561085357610852610803565b5b5f6108608482850161082a565b91505092915050565b5f8115159050919050565b61087d81610869565b82525050565b5f6020820190506108965f830184610874565b92915050565b5f73ffffffffffffffffffffffffffffffffffffffff82169050919050565b5f6108c58261089c565b9050919050565b6108d5816108bb565b82525050565b5f819050919050565b6108ed816108db565b82525050565b5f81519050919050565b5f82825260208201905092915050565b5f5b8381101561092a57808201518184015260208101905061090f565b5f8484015250505050565b5f601f19601f8301169050919050565b5f61094f826108f3565b61095981856108fd565b935061096981856020860161090d565b61097281610935565b840191505092915050565b5f6080820190506109905f8301876108cc565b61099d60208301866108cc565b6109aa60408301856108e4565b81810360608301526109bc8184610945565b905095945050505050565b5f6020820190506109da5f8301846108cc565b92915050565b6109e9816108bb565b81146109f3575f80fd5b50565b5f81359050610a04816109e0565b92915050565b5f60208284031215610a1f57610a1e610803565b5b5f610a2c848285016109f6565b91505092915050565b5f80fd5b5f80fd5b5f80fd5b5f8083601f840112610a5657610a55610a35565b5b8235905067ffffffffffffffff811115610a7357610a72610a39565b5b602083019150836001820283011115610a8f57610a8e610a3d565b5b9250929050565b5f805f8060608587031215610aae57610aad610803565b5b5f610abb8782880161082a565b9450506020610acc878288016109f6565b935050604085013567ffffffffffffffff811115610aed57610aec610807565b5b610af987828801610a41565b925092505092959194509250565b7f4e487b71000000000000000000000000000000000000000000000000000000005f52602260045260245ffd5b5f6002820490506001821680610b4b57607f821691505b602082108103610b5e57610b5d610b07565b5b50919050565b7f6e6f74206f776e657200000000000000000000000000000000000000000000005f82015250565b5f610b986009836108fd565b9150610ba382610b64565b602082019050919050565b5f6020820190508181035f830152610bc581610b8c565b9050919050565b7f7a65726f206164647265737300000000000000000000000000000000000000005f82015250565b5f610c00600c836108fd565b9150610c0b82610bcc565b602082019050919050565b5f6020820190508181035f830152610c2d81610bf4565b9050919050565b7f68617368206b6f736f6e670000000000000000000000000000000000000000005f82015250565b5f610c68600b836108fd565b9150610c7382610c34565b602082019050919050565b5f6020820190508181035f830152610c9581610c5c565b9050919050565b7f63726561746f72206b6f736f6e670000000000000000000000000000000000005f82015250565b5f610cd0600e836108fd565b9150610cdb82610c9c565b602082019050919050565b5f6020820190508181035f830152610cfd81610cc4565b9050919050565b7f73756461682074657264616674617200000000000000000000000000000000005f82015250565b5f610d38600f836108fd565b9150610d4382610d04565b602082019050919050565b5f6020820190508181035f830152610d6581610d2c565b9050919050565b7f4e487b71000000000000000000000000000000000000000000000000000000005f52604160045260245ffd5b5f819050815f5260205f209050919050565b5f6020601f8301049050919050565b5f82821b905092915050565b5f60088302610df57fffffffffffffffffffffffffffffffffffffffffffffffffffffffffffffffff82610dba565b610dff8683610dba565b95508019841693508086168417925050509392505050565b5f819050919050565b5f610e3a610e35610e30846108db565b610e17565b6108db565b9050919050565b5f819050919050565b610e5383610e20565b610e67610e5f82610e41565b848454610dc6565b825550505050565b5f90565b610e7b610e6f565b610e86818484610e4a565b505050565b5b81811015610ea957610e9e5f82610e73565b600181019050610e8c565b5050565b601f821115610eee57610ebf81610d99565b610ec884610dab565b81016020851015610ed7578190505b610eeb610ee385610dab565b830182610e8b565b50505b505050565b5f82821c905092915050565b5f610f0e5f1984600802610ef3565b1980831691505092915050565b5f610f268383610eff565b9150826002028217905092915050565b610f3f826108f3565b67ffffffffffffffff811115610f5857610f57610d6c565b5b610f628254610b34565b610f6d828285610ead565b5f60209050601f831160018114610f9e575f8415610f8c578287015190505b610f968582610f1b565b865550610ffd565b601f198416610fac86610d99565b5f5b82811015610fd357848901518255600182019150602085019450602081019050610fae565b86831015610ff05784890151610fec601f891682610eff565b8355505b6001600288020188555050505b505050505050565b828183375f83830152505050565b5f61101e83856108fd565b935061102b838584611005565b61103483610935565b840190509392505050565b5f6040820190508181035f830152611058818587611013565b905061106760208301846108e4565b94935050505056fea2646970667358221220b4c487869790e58ecb8a3be268316df50c6941fcf143c760bc6da0bcb641d6ba64736f6c63430008140033",
  "linkReferences": {},
  "deployedLinkReferences": {},
  "immutableReferences": {},
  "inputSourceName": "project/contracts/krearsipV2.sol",
  "buildInfoId": "solc-0_8_20-1d5941e1e3a9306ed8d80a82ad7e9de6e771945b"
}